{
  "_format": "hh-sol-artifact-1",
  "contractName": "Storage",
  "sourceName": "contracts/Storage.sol",
  "abi": [
    {
      "inputs": [],
      "name": "getNum",
      "outputs": [
        {
          "internalType": "uint256",
          "name": "",
          "type": "uint256"
        }
      ],
      "stateMutability": "view",
      "type": "function"
    },
    {
      "inputs": [],
      "name": "getTotalValue",
      "outputs": [
        {
          "internalType": "uint256",
          "name": "",
          "type": "uint256"
        }
      ],
      "stateMutability": "view",
      "type": "function"
    },
    {
      "inputs": [],
      "name": "getTotalWallets",
      "outputs": [
        {
          "internalType": "uint256",
          "name": "",
          "type": "uint256"
        }
      ],
      "stateMutability": "view",
      "type": "function"
    },
    {
      "inputs": [
        {
          "internalType": "uint256",
          "name": "_favoriteNumber",
          "type": "uint256"
        }
      ],
      "name": "store",
      "outputs": [],
      "stateMutability": "nonpayable",
      "type": "function"
    }
  ],
  "bytecode": "0x608060405234801561001057600080fd5b506104c6806100206000396000f3fe608060405234801561001057600080fd5b506004361061004c5760003560e01c80636057361d1461005157806367e0badb1461006d578063caa648b41461008b578063f5f50eb1146100a9575b600080fd5b61006b60048036038101906100669190610359565b6100c7565b005b610075610234565b6040516100829190610395565b60405180910390f35b610093610307565b6040516100a09190610395565b60405180910390f35b6100b1610311565b6040516100be9190610395565b60405180910390f35b80600260003373ffffffffffffffffffffffffffffffffffffffff1673ffffffffffffffffffffffffffffffffffffffff16815260200190815260200160002081905550600360003373ffffffffffffffffffffffffffffffffffffffff1673ffffffffffffffffffffffffffffffffffffffff16815260200190815260200160002060009054906101000a900460ff16610218576001600360003373ffffffffffffffffffffffffffffffffffffffff1673ffffffffffffffffffffffffffffffffffffffff16815260200190815260200160002060006101000a81548160ff0219169083151502179055506004339080600181540180825580915050600190039060005260206000200160009091909190916101000a81548173ffffffffffffffffffffffffffffffffffffffff021916908373ffffffffffffffffffffffffffffffffffffffff1602179055505b806001600082825461022a91906103df565b9250508190555050565b6000600360003373ffffffffffffffffffffffffffffffffffffffff1673ffffffffffffffffffffffffffffffffffffffff16815260200190815260200160002060009054906101000a900460ff166102c2576040517f08c379a00000000000000000000000000000000000000000000000000000000081526004016102b990610470565b60405180910390fd5b600260003373ffffffffffffffffffffffffffffffffffffffff1673ffffffffffffffffffffffffffffffffffffffff16815260200190815260200160002054905090565b6000600154905090565b6000600480549050905090565b600080fd5b6000819050919050565b61033681610323565b811461034157600080fd5b50565b6000813590506103538161032d565b92915050565b60006020828403121561036f5761036e61031e565b5b600061037d84828501610344565b91505092915050565b61038f81610323565b82525050565b60006020820190506103aa6000830184610386565b92915050565b7f4e487b7100000000000000000000000000000000000000000000000000000000600052601160045260246000fd5b60006103ea82610323565b91506103f583610323565b925082820190508082111561040d5761040c6103b0565b5b92915050565b600082825260208201905092915050565b7f41646472657373206e6f74206578697374000000000000000000000000000000600082015250565b600061045a601183610413565b915061046582610424565b602082019050919050565b600060208201905081810360008301526104898161044d565b905091905056fea26469706673582212204a646e903382ba3a59f5cb12efd96553a2877e2df29dda439a80fa10937ea14f64736f6c63430008110033",
  "linkReferences": {},
  "deployedLinkReferences": {}
}